{
  "_format": "hh-sol-artifact-1",
  "contractName": "Chipper",
  "sourceName": "contracts/Chipper.sol",
  "abi": [
    {
      "inputs": [],
      "stateMutability": "nonpayable",
      "type": "constructor"
    },
    {
      "inputs": [
        {
          "internalType": "address",
          "name": "tokenAddress",
          "type": "address"
        },
        {
          "internalType": "uint256",
          "name": "tokenAmount",
          "type": "uint256"
        }
      ],
      "name": "chip",
      "outputs": [],
      "stateMutability": "nonpayable",
      "type": "function"
    },
    {
      "inputs": [
        {
          "internalType": "address",
          "name": "tokenA",
          "type": "address"
        },
        {
          "internalType": "address",
          "name": "tokenB",
          "type": "address"
        }
      ],
      "name": "getPrice",
      "outputs": [],
      "stateMutability": "nonpayable",
      "type": "function"
    }
  ],
  "bytecode": "0x608060405234801561001057600080fd5b506104e6806100206000396000f3fe608060405234801561001057600080fd5b50600436106100365760003560e01c8063644ac3521461003b578063ac41865a14610050575b600080fd5b61004e61004936600461031e565b610063565b005b61004e61005e3660046102e6565b610067565b5050565b6000826001600160a01b03166306fdde036040518163ffffffff1660e01b815260040160006040518083038186803b1580156100a257600080fd5b505afa1580156100b6573d6000803e3d6000fd5b505050506040513d6000823e601f3d908101601f191682016040526100de9190810190610349565b90506000826001600160a01b03166306fdde036040518163ffffffff1660e01b815260040160006040518083038186803b15801561011b57600080fd5b505afa15801561012f573d6000803e3d6000fd5b505050506040513d6000823e601f3d908101601f191682016040526101579190810190610349565b9050600080600080735c69bee701ef814a2b6a3edd4b1652cb9cc5aa6f6001600160a01b031663e6a4390589896040518363ffffffff1660e01b81526004016101a192919061045a565b60206040518083038186803b1580156101b957600080fd5b505afa1580156101cd573d6000803e3d6000fd5b505050506040513d601f19601f820116820180604052508101906101f191906102c3565b90506001600160a01b0381166102225760405162461bcd60e51b815260040161021990610474565b60405180910390fd5b806001600160a01b0316630902f1ac6040518163ffffffff1660e01b815260040160606040518083038186803b15801561025b57600080fd5b505afa15801561026f573d6000803e3d6000fd5b505050506040513d601f19601f82011682018060405250810190610293919061040c565b5050505050505050505050565b80516dffffffffffffffffffffffffffff811681146102be57600080fd5b919050565b6000602082840312156102d4578081fd5b81516102df816104c1565b9392505050565b600080604083850312156102f8578081fd5b8235610303816104c1565b91506020830135610313816104c1565b809150509250929050565b60008060408385031215610330578182fd5b823561033b816104c1565b946020939093013593505050565b6000602080838503121561035b578182fd5b825167ffffffffffffffff80821115610372578384fd5b818501915085601f830112610385578384fd5b815181811115610397576103976104ab565b604051601f8201601f19168101850183811182821017156103ba576103ba6104ab565b60405281815283820185018810156103d0578586fd5b8592505b818310156103f157838301850151818401860152918401916103d4565b8183111561040157858583830101525b979650505050505050565b600080600060608486031215610420578081fd5b610429846102a0565b9250610437602085016102a0565b9150604084015163ffffffff8116811461044f578182fd5b809150509250925092565b6001600160a01b0392831681529116602082015260400190565b60208082526016908201527f496e76616c696420706169722073706563696669656400000000000000000000604082015260600190565b634e487b7160e01b600052604160045260246000fd5b6001600160a01b03811681146104d657600080fd5b5056fea164736f6c6343000800000a",
  "linkReferences": {},
  "deployedLinkReferences": {}
}